{
  "contractName": "TrustLens",
  "abi": [
    {
      "inputs": [],
      "stateMutability": "nonpayable",
      "type": "constructor"
    },
    {
      "inputs": [
        {
          "internalType": "address",
          "name": "sender",
          "type": "address"
        },
        {
          "internalType": "uint256",
          "name": "tokenId",
          "type": "uint256"
        },
        {
          "internalType": "address",
          "name": "owner",
          "type": "address"
        }
      ],
      "name": "ERC721IncorrectOwner",
      "type": "error"
    },
    {
      "inputs": [
        {
          "internalType": "address",
          "name": "operator",
          "type": "address"
        },
        {
          "internalType": "uint256",
          "name": "tokenId",
          "type": "uint256"
        }
      ],
      "name": "ERC721InsufficientApproval",
      "type": "error"
    },
    {
      "inputs": [
        {
          "internalType": "address",
          "name": "approver",
          "type": "address"
        }
      ],
      "name": "ERC721InvalidApprover",
      "type": "error"
    },
    {
      "inputs": [
        {
          "internalType": "address",
          "name": "operator",
          "type": "address"
        }
      ],
      "name": "ERC721InvalidOperator",
      "type": "error"
    },
    {
      "inputs": [
        {
          "internalType": "address",
          "name": "owner",
          "type": "address"
        }
      ],
      "name": "ERC721InvalidOwner",
      "type": "error"
    },
    {
      "inputs": [
        {
          "internalType": "address",
          "name": "receiver",
          "type": "address"
        }
      ],
      "name": "ERC721InvalidReceiver",
      "type": "error"
    },
    {
      "inputs": [
        {
          "internalType": "address",
          "name": "sender",
          "type": "address"
        }
      ],
      "name": "ERC721InvalidSender",
      "type": "error"
    },
    {
      "inputs": [
        {
          "internalType": "uint256",
          "name": "tokenId",
          "type": "uint256"
        }
      ],
      "name": "ERC721NonexistentToken",
      "type": "error"
    },
    {
      "inputs": [
        {
          "internalType": "address",
          "name": "owner",
          "type": "address"
        }
      ],
      "name": "OwnableInvalidOwner",
      "type": "error"
    },
    {
      "inputs": [
        {
          "internalType": "address",
          "name": "account",
          "type": "address"
        }
      ],
      "name": "OwnableUnauthorizedAccount",
      "type": "error"
    },
    {
      "anonymous": false,
      "inputs": [
        {
          "indexed": true,
          "internalType": "address",
          "name": "owner",
          "type": "address"
        },
        {
          "indexed": true,
          "internalType": "address",
          "name": "approved",
          "type": "address"
        },
        {
          "indexed": true,
          "internalType": "uint256",
          "name": "tokenId",
          "type": "uint256"
        }
      ],
      "name": "Approval",
      "type": "event"
    },
    {
      "anonymous": false,
      "inputs": [
        {
          "indexed": true,
          "internalType": "address",
          "name": "owner",
          "type": "address"
        },
        {
          "indexed": true,
          "internalType": "address",
          "name": "operator",
          "type": "address"
        },
        {
          "indexed": false,
          "internalType": "bool",
          "name": "approved",
          "type": "bool"
        }
      ],
      "name": "ApprovalForAll",
      "type": "event"
    },
    {
      "anonymous": false,
      "inputs": [
        {
          "indexed": true,
          "internalType": "uint256",
          "name": "id",
          "type": "uint256"
        },
        {
          "indexed": true,
          "internalType": "address",
          "name": "author",
          "type": "address"
        },
        {
          "indexed": false,
          "internalType": "string",
          "name": "metadataURI",
          "type": "string"
        },
        {
          "indexed": false,
          "internalType": "uint256",
          "name": "timestamp",
          "type": "uint256"
        }
      ],
      "name": "ArticlePublished",
      "type": "event"
    },
    {
      "anonymous": false,
      "inputs": [
        {
          "indexed": false,
          "internalType": "uint256",
          "name": "_fromTokenId",
          "type": "uint256"
        },
        {
          "indexed": false,
          "internalType": "uint256",
          "name": "_toTokenId",
          "type": "uint256"
        }
      ],
      "name": "BatchMetadataUpdate",
      "type": "event"
    },
    {
      "anonymous": false,
      "inputs": [
        {
          "indexed": true,
          "internalType": "address",
          "name": "journalist",
          "type": "address"
        }
      ],
      "name": "JournalistRegistered",
      "type": "event"
    },
    {
      "anonymous": false,
      "inputs": [
        {
          "indexed": false,
          "internalType": "uint256",
          "name": "_tokenId",
          "type": "uint256"
        }
      ],
      "name": "MetadataUpdate",
      "type": "event"
    },
    {
      "anonymous": false,
      "inputs": [
        {
          "indexed": true,
          "internalType": "address",
          "name": "previousOwner",
          "type": "address"
        },
        {
          "indexed": true,
          "internalType": "address",
          "name": "newOwner",
          "type": "address"
        }
      ],
      "name": "OwnershipTransferred",
      "type": "event"
    },
    {
      "anonymous": false,
      "inputs": [
        {
          "indexed": true,
          "internalType": "address",
          "name": "from",
          "type": "address"
        },
        {
          "indexed": true,
          "internalType": "address",
          "name": "to",
          "type": "address"
        },
        {
          "indexed": true,
          "internalType": "uint256",
          "name": "tokenId",
          "type": "uint256"
        }
      ],
      "name": "Transfer",
      "type": "event"
    },
    {
      "inputs": [
        {
          "internalType": "address",
          "name": "to",
          "type": "address"
        },
        {
          "internalType": "uint256",
          "name": "tokenId",
          "type": "uint256"
        }
      ],
      "name": "approve",
      "outputs": [],
      "stateMutability": "nonpayable",
      "type": "function"
    },
    {
      "inputs": [
        {
          "internalType": "uint256",
          "name": "",
          "type": "uint256"
        }
      ],
      "name": "articles",
      "outputs": [
        {
          "internalType": "uint256",
          "name": "id",
          "type": "uint256"
        },
        {
          "internalType": "address",
          "name": "author",
          "type": "address"
        },
        {
          "internalType": "string",
          "name": "metadataURI",
          "type": "string"
        },
        {
          "internalType": "uint256",
          "name": "timestamp",
          "type": "uint256"
        }
      ],
      "stateMutability": "view",
      "type": "function",
      "constant": true
    },
    {
      "inputs": [
        {
          "internalType": "address",
          "name": "owner",
          "type": "address"
        }
      ],
      "name": "balanceOf",
      "outputs": [
        {
          "internalType": "uint256",
          "name": "",
          "type": "uint256"
        }
      ],
      "stateMutability": "view",
      "type": "function",
      "constant": true
    },
    {
      "inputs": [
        {
          "internalType": "uint256",
          "name": "tokenId",
          "type": "uint256"
        }
      ],
      "name": "getApproved",
      "outputs": [
        {
          "internalType": "address",
          "name": "",
          "type": "address"
        }
      ],
      "stateMutability": "view",
      "type": "function",
      "constant": true
    },
    {
      "inputs": [
        {
          "internalType": "address",
          "name": "owner",
          "type": "address"
        },
        {
          "internalType": "address",
          "name": "operator",
          "type": "address"
        }
      ],
      "name": "isApprovedForAll",
      "outputs": [
        {
          "internalType": "bool",
          "name": "",
          "type": "bool"
        }
      ],
      "stateMutability": "view",
      "type": "function",
      "constant": true
    },
    {
      "inputs": [
        {
          "internalType": "address",
          "name": "",
          "type": "address"
        },
        {
          "internalType": "uint256",
          "name": "",
          "type": "uint256"
        }
      ],
      "name": "journalistArticles",
      "outputs": [
        {
          "internalType": "uint256",
          "name": "",
          "type": "uint256"
        }
      ],
      "stateMutability": "view",
      "type": "function",
      "constant": true
    },
    {
      "inputs": [],
      "name": "name",
      "outputs": [
        {
          "internalType": "string",
          "name": "",
          "type": "string"
        }
      ],
      "stateMutability": "view",
      "type": "function",
      "constant": true
    },
    {
      "inputs": [],
      "name": "owner",
      "outputs": [
        {
          "internalType": "address",
          "name": "",
          "type": "address"
        }
      ],
      "stateMutability": "view",
      "type": "function",
      "constant": true
    },
    {
      "inputs": [
        {
          "internalType": "uint256",
          "name": "tokenId",
          "type": "uint256"
        }
      ],
      "name": "ownerOf",
      "outputs": [
        {
          "internalType": "address",
          "name": "",
          "type": "address"
        }
      ],
      "stateMutability": "view",
      "type": "function",
      "constant": true
    },
    {
      "inputs": [
        {
          "internalType": "address",
          "name": "",
          "type": "address"
        }
      ],
      "name": "registeredJournalists",
      "outputs": [
        {
          "internalType": "bool",
          "name": "",
          "type": "bool"
        }
      ],
      "stateMutability": "view",
      "type": "function",
      "constant": true
    },
    {
      "inputs": [],
      "name": "renounceOwnership",
      "outputs": [],
      "stateMutability": "nonpayable",
      "type": "function"
    },
    {
      "inputs": [
        {
          "internalType": "address",
          "name": "from",
          "type": "address"
        },
        {
          "internalType": "address",
          "name": "to",
          "type": "address"
        },
        {
          "internalType": "uint256",
          "name": "tokenId",
          "type": "uint256"
        }
      ],
      "name": "safeTransferFrom",
      "outputs": [],
      "stateMutability": "nonpayable",
      "type": "function"
    },
    {
      "inputs": [
        {
          "internalType": "address",
          "name": "from",
          "type": "address"
        },
        {
          "internalType": "address",
          "name": "to",
          "type": "address"
        },
        {
          "internalType": "uint256",
          "name": "tokenId",
          "type": "uint256"
        },
        {
          "internalType": "bytes",
          "name": "data",
          "type": "bytes"
        }
      ],
      "name": "safeTransferFrom",
      "outputs": [],
      "stateMutability": "nonpayable",
      "type": "function"
    },
    {
      "inputs": [
        {
          "internalType": "address",
          "name": "operator",
          "type": "address"
        },
        {
          "internalType": "bool",
          "name": "approved",
          "type": "bool"
        }
      ],
      "name": "setApprovalForAll",
      "outputs": [],
      "stateMutability": "nonpayable",
      "type": "function"
    },
    {
      "inputs": [
        {
          "internalType": "bytes4",
          "name": "interfaceId",
          "type": "bytes4"
        }
      ],
      "name": "supportsInterface",
      "outputs": [
        {
          "internalType": "bool",
          "name": "",
          "type": "bool"
        }
      ],
      "stateMutability": "view",
      "type": "function",
      "constant": true
    },
    {
      "inputs": [],
      "name": "symbol",
      "outputs": [
        {
          "internalType": "string",
          "name": "",
          "type": "string"
        }
      ],
      "stateMutability": "view",
      "type": "function",
      "constant": true
    },
    {
      "inputs": [
        {
          "internalType": "uint256",
          "name": "tokenId",
          "type": "uint256"
        }
      ],
      "name": "tokenURI",
      "outputs": [
        {
          "internalType": "string",
          "name": "",
          "type": "string"
        }
      ],
      "stateMutability": "view",
      "type": "function",
      "constant": true
    },
    {
      "inputs": [
        {
          "internalType": "address",
          "name": "from",
          "type": "address"
        },
        {
          "internalType": "address",
          "name": "to",
          "type": "address"
        },
        {
          "internalType": "uint256",
          "name": "tokenId",
          "type": "uint256"
        }
      ],
      "name": "transferFrom",
      "outputs": [],
      "stateMutability": "nonpayable",
      "type": "function"
    },
    {
      "inputs": [
        {
          "internalType": "address",
          "name": "newOwner",
          "type": "address"
        }
      ],
      "name": "transferOwnership",
      "outputs": [],
      "stateMutability": "nonpayable",
      "type": "function"
    },
    {
      "inputs": [],
      "name": "registerJournalist",
      "outputs": [],
      "stateMutability": "nonpayable",
      "type": "function"
    },
    {
      "inputs": [
        {
          "internalType": "string",
          "name": "_metadataURI",
          "type": "string"
        }
      ],
      "name": "publishArticle",
      "outputs": [],
      "stateMutability": "nonpayable",
      "type": "function"
    },
    {
      "inputs": [
        {
          "internalType": "address",
          "name": "_journalist",
          "type": "address"
        }
      ],
      "name": "getArticlesByJournalist",
      "outputs": [
        {
          "internalType": "uint256[]",
          "name": "",
          "type": "uint256[]"
        }
      ],
      "stateMutability": "view",
      "type": "function",
      "constant": true
    },
    {
      "inputs": [],
      "name": "getAllArticles",
      "outputs": [
        {
          "components": [
            {
              "internalType": "uint256",
              "name": "id",
              "type": "uint256"
            },
            {
              "internalType": "address",
              "name": "author",
              "type": "address"
            },
            {
              "internalType": "string",
              "name": "metadataURI",
              "type": "string"
            },
            {
              "internalType": "uint256",
              "name": "timestamp",
              "type": "uint256"
            }
          ],
          "internalType": "struct TrustLens.Article[]",
          "name": "",
          "type": "tuple[]"
        }
      ],
      "stateMutability": "view",
      "type": "function",
      "constant": true
    },
    {
      "inputs": [
        {
          "internalType": "uint256",
          "name": "_id",
          "type": "uint256"
        }
      ],
      "name": "getArticle",
      "outputs": [
        {
          "components": [
            {
              "internalType": "uint256",
              "name": "id",
              "type": "uint256"
            },
            {
              "internalType": "address",
              "name": "author",
              "type": "address"
            },
            {
              "internalType": "string",
              "name": "metadataURI",
              "type": "string"
            },
            {
              "internalType": "uint256",
              "name": "timestamp",
              "type": "uint256"
            }
          ],
          "internalType": "struct TrustLens.Article",
          "name": "",
          "type": "tuple"
        }
      ],
      "stateMutability": "view",
      "type": "function",
      "constant": true
    }
  ],
  "bytecode": "0x608060405234801562000010575f80fd5b50336040518060400160405280601081526020016f54727573744c656e7341727469636c6560801b81525060405180604001604052806003815260200162544c4160e81b815250815f90816200006791906200022a565b5060016200007682826200022a565b5050506001600160a01b038116620000a857604051631e4fbdf760e01b81525f60048201526024015b60405180910390fd5b620000b381620000c5565b50620000bf3362000116565b620002f2565b600780546001600160a01b038381166001600160a01b0319831681179093556040519116919082907f8be0079c531659141344cd1fd0a4f28419497f9722a3daafe3b4186f6b6457e0905f90a35050565b6200012062000159565b6001600160a01b0381166200014b57604051631e4fbdf760e01b81525f60048201526024016200009f565b6200015681620000c5565b50565b6007546001600160a01b03163314620001885760405163118cdaa760e01b81523360048201526024016200009f565b565b634e487b7160e01b5f52604160045260245ffd5b600181811c90821680620001b357607f821691505b602082108103620001d257634e487b7160e01b5f52602260045260245ffd5b50919050565b601f82111562000225575f81815260208120601f850160051c81016020861015620002005750805b601f850160051c820191505b8181101562000221578281556001016200020c565b5050505b505050565b81516001600160401b038111156200024657620002466200018a565b6200025e816200025784546200019e565b84620001d8565b602080601f83116001811462000294575f84156200027c5750858301515b5f19600386901b1c1916600185901b17855562000221565b5f85815260208120601f198616915b82811015620002c457888601518255948401946001909101908401620002a3565b5085821015620002e257878501515f19600388901b60f8161c191681555b5050505050600190811b01905550565b611bd380620003005f395ff3fe608060405234801561000f575f80fd5b5060043610610153575f3560e01c806395d89b41116100bf578063bd85d86711610079578063bd85d867146102d8578063c87b56dd146102f8578063e985e9c51461030b578063eb49afc41461031e578063edcfafe614610340578063f2fde38b14610363575f80fd5b806395d89b4114610262578063a22cb4651461026a578063a2d235581461027d578063b44d310b1461029d578063b88d4fde146102b2578063bbb85080146102c5575f80fd5b806342842e0e1161011057806342842e0e146101ef5780636352211e1461020257806370a0823114610215578063715018a61461023657806387ba55c41461023e5780638da5cb5b14610251575f80fd5b806301ffc9a71461015757806306fdde031461017f578063081812fc14610194578063095ea7b3146101bf57806323b872dd146101d45780632dbd4adb146101e7575b5f80fd5b61016a61016536600461156b565b610376565b60405190151581526020015b60405180910390f35b6101876103a0565b60405161017691906115d3565b6101a76101a23660046115e5565b61042f565b6040516001600160a01b039091168152602001610176565b6101d26101cd366004611617565b610456565b005b6101d26101e236600461163f565b610465565b6101d26104f3565b6101d26101fd36600461163f565b610534565b6101a76102103660046115e5565b610553565b610228610223366004611678565b61055d565b604051908152602001610176565b6101d26105a2565b61022861024c366004611617565b6105b5565b6007546001600160a01b03166101a7565b6101876105e0565b6101d2610278366004611691565b6105ef565b61029061028b366004611678565b6105fa565b60405161017691906116ca565b6102a5610663565b6040516101769190611751565b6101d26102c0366004611838565b610807565b6101d26102d33660046118af565b61081f565b6102eb6102e63660046115e5565b6109a4565b60405161017691906118f4565b6101876103063660046115e5565b610b0e565b61016a610319366004611906565b610c19565b61016a61032c366004611678565b600a6020525f908152604090205460ff1681565b61035361034e3660046115e5565b610c46565b6040516101769493929190611937565b6101d2610371366004611678565b610cfe565b5f6001600160e01b03198216632483248360e11b148061039a575061039a82610d3b565b92915050565b60605f80546103ae90611971565b80601f01602080910402602001604051908101604052809291908181526020018280546103da90611971565b80156104255780601f106103fc57610100808354040283529160200191610425565b820191905f5260205f20905b81548152906001019060200180831161040857829003601f168201915b5050505050905090565b5f61043982610d8a565b505f828152600460205260409020546001600160a01b031661039a565b610461828233610dc2565b5050565b6001600160a01b03821661049357604051633250574960e11b81525f60048201526024015b60405180910390fd5b5f61049f838333610dcf565b9050836001600160a01b0316816001600160a01b0316146104ed576040516364283d7b60e01b81526001600160a01b038086166004830152602482018490528216604482015260640161048a565b50505050565b335f818152600a6020526040808220805460ff19166001179055517f7a37366c7f36050ddbc868516738c54e860bd48e4e6b0c0c229d7b3b7151d8669190a2565b61054e83838360405180602001604052805f815250610807565b505050565b5f61039a82610d8a565b5f6001600160a01b038216610587576040516322718ad960e21b81525f600482015260240161048a565b506001600160a01b03165f9081526003602052604090205490565b6105aa610ec1565b6105b35f610eee565b565b600b602052815f5260405f2081815481106105ce575f80fd5b905f5260205f20015f91509150505481565b6060600180546103ae90611971565b610461338383610f3f565b6001600160a01b0381165f908152600b602090815260409182902080548351818402810184019094528084526060939283018282801561065757602002820191905f5260205f20905b815481526020019060010190808311610643575b50505050509050919050565b60605f60085467ffffffffffffffff811115610681576106816117b1565b6040519080825280602002602001820160405280156106e357816020015b6106d060405180608001604052805f81526020015f6001600160a01b03168152602001606081526020015f81525090565b81526020019060019003908161069f5790505b50905060015b6008548111610801575f8181526009602090815260409182902082516080810184528154815260018201546001600160a01b031692810192909252600281018054929391929184019161073b90611971565b80601f016020809104026020016040519081016040528092919081815260200182805461076790611971565b80156107b25780601f10610789576101008083540402835291602001916107b2565b820191905f5260205f20905b81548152906001019060200180831161079557829003601f168201915b50505050508152602001600382015481525050826001836107d391906119b7565b815181106107e3576107e36119ca565b602002602001018190525080806107f9906119de565b9150506106e9565b50919050565b610812848484610465565b6104ed3385858585610fdd565b335f908152600a602052604090205460ff166108995760405162461bcd60e51b815260206004820152603360248201527f4f6e6c792072656769737465726564206a6f75726e616c697374732063616e206044820152723832b93337b936903a3434b99030b1ba34b7b760691b606482015260840161048a565b60088054905f6108a8836119de565b9091555050600854604080516080810182528281523360208083019182528284018681524260608501525f86815260099092529390208251815590516001820180546001600160a01b0319166001600160a01b03909216919091179055915190919060028201906109199082611a3b565b5060609190910151600390910155335f818152600b60209081526040822080546001810182559083529120018290556109529082611105565b61095c8183611166565b336001600160a01b0316817f5bcbf7c83378c89f8986f77f24cb149d829995e2a27434e3d66f2aa14f86e4198442604051610998929190611af7565b60405180910390a35050565b6109d560405180608001604052805f81526020015f6001600160a01b03168152602001606081526020015f81525090565b5f828152600960205260409020600101546001600160a01b0316610a345760405162461bcd60e51b8152602060048201526016602482015275105c9d1a58db1948191bd95cc81b9bdd08195e1a5cdd60521b604482015260640161048a565b5f8281526009602090815260409182902082516080810184528154815260018201546001600160a01b0316928101929092526002810180549293919291840191610a7d90611971565b80601f0160208091040260200160405190810160405280929190818152602001828054610aa990611971565b8015610af45780601f10610acb57610100808354040283529160200191610af4565b820191905f5260205f20905b815481529060010190602001808311610ad757829003601f168201915b505050505081526020016003820154815250509050919050565b6060610b1982610d8a565b505f8281526006602052604081208054610b3290611971565b80601f0160208091040260200160405190810160405280929190818152602001828054610b5e90611971565b8015610ba95780601f10610b8057610100808354040283529160200191610ba9565b820191905f5260205f20905b815481529060010190602001808311610b8c57829003601f168201915b505050505090505f610bc560408051602081019091525f815290565b905080515f03610bd6575092915050565b815115610c08578082604051602001610bf0929190611b18565b60405160208183030381529060405292505050919050565b610c11846111b5565b949350505050565b6001600160a01b039182165f90815260056020908152604080832093909416825291909152205460ff1690565b60096020525f908152604090208054600182015460028301805492936001600160a01b0390921692610c7790611971565b80601f0160208091040260200160405190810160405280929190818152602001828054610ca390611971565b8015610cee5780601f10610cc557610100808354040283529160200191610cee565b820191905f5260205f20905b815481529060010190602001808311610cd157829003601f168201915b5050505050908060030154905084565b610d06610ec1565b6001600160a01b038116610d2f57604051631e4fbdf760e01b81525f600482015260240161048a565b610d3881610eee565b50565b5f6001600160e01b031982166380ac58cd60e01b1480610d6b57506001600160e01b03198216635b5e139f60e01b145b8061039a57506301ffc9a760e01b6001600160e01b031983161461039a565b5f818152600260205260408120546001600160a01b03168061039a57604051637e27328960e01b81526004810184905260240161048a565b61054e8383836001611226565b5f828152600260205260408120546001600160a01b0390811690831615610dfb57610dfb81848661132a565b6001600160a01b03811615610e3557610e165f855f80611226565b6001600160a01b0381165f90815260036020526040902080545f190190555b6001600160a01b03851615610e63576001600160a01b0385165f908152600360205260409020805460010190555b5f8481526002602052604080822080546001600160a01b0319166001600160a01b0389811691821790925591518793918516917fddf252ad1be2c89b69c2b068fc378daa952ba7f163c4a11628f55a4df523b3ef91a4949350505050565b6007546001600160a01b031633146105b35760405163118cdaa760e01b815233600482015260240161048a565b600780546001600160a01b038381166001600160a01b0319831681179093556040519116919082907f8be0079c531659141344cd1fd0a4f28419497f9722a3daafe3b4186f6b6457e0905f90a35050565b6001600160a01b038216610f7157604051630b61174360e31b81526001600160a01b038316600482015260240161048a565b6001600160a01b038381165f81815260056020908152604080832094871680845294825291829020805460ff191686151590811790915591519182527f17307eab39ab6107e8899845ad3d59bd9653f200f220920489ca2b5937696c31910160405180910390a3505050565b6001600160a01b0383163b156110fe57604051630a85bd0160e11b81526001600160a01b0384169063150b7a029061101f908890889087908790600401611b46565b6020604051808303815f875af1925050508015611059575060408051601f3d908101601f1916820190925261105691810190611b82565b60015b6110c0573d808015611086576040519150601f19603f3d011682016040523d82523d5f602084013e61108b565b606091505b5080515f036110b857604051633250574960e11b81526001600160a01b038516600482015260240161048a565b805181602001fd5b6001600160e01b03198116630a85bd0160e11b146110fc57604051633250574960e11b81526001600160a01b038516600482015260240161048a565b505b5050505050565b6001600160a01b03821661112e57604051633250574960e11b81525f600482015260240161048a565b5f61113a83835f610dcf565b90506001600160a01b0381161561054e576040516339e3563760e11b81525f600482015260240161048a565b5f82815260066020526040902061117d8282611a3b565b506040518281527ff8e1a15aba9398e019f0b49df1a4fde98ee17ae345cb5f6b5e2c27f5033e8ce79060200160405180910390a15050565b60606111c082610d8a565b505f6111d660408051602081019091525f815290565b90505f8151116111f45760405180602001604052805f81525061121f565b806111fe8461138e565b60405160200161120f929190611b18565b6040516020818303038152906040525b9392505050565b808061123a57506001600160a01b03821615155b156112fb575f61124984610d8a565b90506001600160a01b038316158015906112755750826001600160a01b0316816001600160a01b031614155b801561128857506112868184610c19565b155b156112b15760405163a9fbf51f60e01b81526001600160a01b038416600482015260240161048a565b81156112f95783856001600160a01b0316826001600160a01b03167f8c5be1e5ebec7d5bd14f71427d1e84f3dd0314c0f7b2291e5b200ac8c7c3b92560405160405180910390a45b505b50505f90815260046020526040902080546001600160a01b0319166001600160a01b0392909216919091179055565b61133583838361141e565b61054e576001600160a01b03831661136357604051637e27328960e01b81526004810182905260240161048a565b60405163177e802f60e01b81526001600160a01b03831660048201526024810182905260440161048a565b60605f61139a8361147f565b60010190505f8167ffffffffffffffff8111156113b9576113b96117b1565b6040519080825280601f01601f1916602001820160405280156113e3576020820181803683370190505b5090508181016020015b5f19016f181899199a1a9b1b9c1cb0b131b232b360811b600a86061a8153600a85049450846113ed57509392505050565b5f6001600160a01b03831615801590610c115750826001600160a01b0316846001600160a01b0316148061145757506114578484610c19565b80610c115750505f908152600460205260409020546001600160a01b03908116911614919050565b5f8072184f03e93ff9f4daa797ed6e38ed64bf6a1f0160401b83106114bd5772184f03e93ff9f4daa797ed6e38ed64bf6a1f0160401b830492506040015b6d04ee2d6d415b85acef810000000083106114e9576d04ee2d6d415b85acef8100000000830492506020015b662386f26fc10000831061150757662386f26fc10000830492506010015b6305f5e100831061151f576305f5e100830492506008015b612710831061153357612710830492506004015b60648310611545576064830492506002015b600a831061039a5760010192915050565b6001600160e01b031981168114610d38575f80fd5b5f6020828403121561157b575f80fd5b813561121f81611556565b5f5b838110156115a0578181015183820152602001611588565b50505f910152565b5f81518084526115bf816020860160208601611586565b601f01601f19169290920160200192915050565b602081525f61121f60208301846115a8565b5f602082840312156115f5575f80fd5b5035919050565b80356001600160a01b0381168114611612575f80fd5b919050565b5f8060408385031215611628575f80fd5b611631836115fc565b946020939093013593505050565b5f805f60608486031215611651575f80fd5b61165a846115fc565b9250611668602085016115fc565b9150604084013590509250925092565b5f60208284031215611688575f80fd5b61121f826115fc565b5f80604083850312156116a2575f80fd5b6116ab836115fc565b9150602083013580151581146116bf575f80fd5b809150509250929050565b602080825282518282018190525f9190848201906040850190845b81811015611701578351835292840192918401916001016116e5565b50909695505050505050565b8051825260018060a01b0360208201511660208301525f60408201516080604085015261173d60808501826115a8565b606093840151949093019390935250919050565b5f602080830181845280855180835260408601915060408160051b87010192508387015f5b828110156117a457603f1988860301845261179285835161170d565b94509285019290850190600101611776565b5092979650505050505050565b634e487b7160e01b5f52604160045260245ffd5b5f67ffffffffffffffff808411156117df576117df6117b1565b604051601f8501601f19908116603f01168101908282118183101715611807576118076117b1565b8160405280935085815286868601111561181f575f80fd5b858560208301375f602087830101525050509392505050565b5f805f806080858703121561184b575f80fd5b611854856115fc565b9350611862602086016115fc565b925060408501359150606085013567ffffffffffffffff811115611884575f80fd5b8501601f81018713611894575f80fd5b6118a3878235602084016117c5565b91505092959194509250565b5f602082840312156118bf575f80fd5b813567ffffffffffffffff8111156118d5575f80fd5b8201601f810184136118e5575f80fd5b610c11848235602084016117c5565b602081525f61121f602083018461170d565b5f8060408385031215611917575f80fd5b611920836115fc565b915061192e602084016115fc565b90509250929050565b8481526001600160a01b03841660208201526080604082018190525f90611960908301856115a8565b905082606083015295945050505050565b600181811c9082168061198557607f821691505b60208210810361080157634e487b7160e01b5f52602260045260245ffd5b634e487b7160e01b5f52601160045260245ffd5b8181038181111561039a5761039a6119a3565b634e487b7160e01b5f52603260045260245ffd5b5f600182016119ef576119ef6119a3565b5060010190565b601f82111561054e575f81815260208120601f850160051c81016020861015611a1c5750805b601f850160051c820191505b818110156110fc57828155600101611a28565b815167ffffffffffffffff811115611a5557611a556117b1565b611a6981611a638454611971565b846119f6565b602080601f831160018114611a9c575f8415611a855750858301515b5f19600386901b1c1916600185901b1785556110fc565b5f85815260208120601f198616915b82811015611aca57888601518255948401946001909101908401611aab565b5085821015611ae757878501515f19600388901b60f8161c191681555b5050505050600190811b01905550565b604081525f611b0960408301856115a8565b90508260208301529392505050565b5f8351611b29818460208801611586565b835190830190611b3d818360208801611586565b01949350505050565b6001600160a01b03858116825284166020820152604081018390526080606082018190525f90611b78908301846115a8565b9695505050505050565b5f60208284031215611b92575f80fd5b815161121f8161155656fea2646970667358221220bb527978e08746738fef636dfa6e59f3ef199cc716953fc5dab4fd5e659cf45f64736f6c63430008140033",
  "immutableReferences": {},
  "source": "// SPDX-License-Identifier: MIT\r\npragma solidity ^0.8.20;\r\n\r\nimport \"@openzeppelin/contracts/access/Ownable.sol\";\r\nimport \"@openzeppelin/contracts/token/ERC721/extensions/ERC721URIStorage.sol\";\r\n\r\ncontract TrustLens is ERC721URIStorage, Ownable {\r\n    uint256 private _articleIds;\r\n\r\n    struct Article {\r\n        uint256 id;\r\n        address author;\r\n        string metadataURI;  // URI pointing to the article metadata (e.g., IPFS)\r\n        uint256 timestamp;\r\n    }\r\n\r\n    mapping(uint256 => Article) public articles;\r\n    mapping(address => bool) public registeredJournalists;\r\n    mapping(address => uint256[]) public journalistArticles;\r\n\r\n    event ArticlePublished(uint256 indexed id, address indexed author, string metadataURI, uint256 timestamp);\r\n    event JournalistRegistered(address indexed journalist);\r\n\r\n    modifier onlyRegisteredJournalist() {\r\n        require(registeredJournalists[msg.sender], \"Only registered journalists can perform this action\");\r\n        _;\r\n    }\r\n\r\n    constructor() ERC721(\"TrustLensArticle\", \"TLA\") Ownable(msg.sender) {\r\n        // This will set the owner of the contract to the deployer\r\n        transferOwnership(msg.sender);\r\n    }\r\n\r\n    // Journalists can register themselves\r\n    function registerJournalist() public {\r\n        registeredJournalists[msg.sender] = true;\r\n        emit JournalistRegistered(msg.sender);\r\n    }\r\n\r\n    // Publish an article by providing metadata URI\r\n    function publishArticle(string memory _metadataURI) public onlyRegisteredJournalist {\r\n        _articleIds++;\r\n        uint256 newArticleId = _articleIds;\r\n\r\n        articles[newArticleId] = Article(\r\n            newArticleId,\r\n            msg.sender,\r\n            _metadataURI,\r\n            block.timestamp\r\n        );\r\n\r\n        journalistArticles[msg.sender].push(newArticleId);\r\n\r\n        // Mint an NFT to represent the ownership of the article\r\n        _mint(msg.sender, newArticleId);\r\n        _setTokenURI(newArticleId, _metadataURI);  // Set the token's URI to the metadata URI\r\n\r\n        emit ArticlePublished(newArticleId, msg.sender, _metadataURI, block.timestamp);\r\n    }\r\n\r\n    // Get articles published by a journalist\r\n    function getArticlesByJournalist(address _journalist) public view returns (uint256[] memory) {\r\n        return journalistArticles[_journalist];\r\n    }\r\n\r\n    // Get all articles\r\n    function getAllArticles() public view returns (Article[] memory) {\r\n        Article[] memory allArticles = new Article[](_articleIds);\r\n        for (uint256 i = 1; i <= _articleIds; i++) {\r\n            allArticles[i - 1] = articles[i];\r\n        }\r\n        return allArticles;\r\n    }\r\n\r\n    // Get article details by ID\r\n    function getArticle(uint256 _id) public view returns (Article memory) {\r\n        require(articles[_id].author != address(0), \"Article does not exist\");\r\n        return articles[_id];\r\n    }\r\n}\r\n",
  "sourcePath": "C:\\Users\\amane\\Documents\\Dev\\trustlens\\blockchain\\contracts\\OwnershipVerification.sol",
  "compiler": {
    "name": "solc",
    "version": "0.8.20+commit.a1b79de6.Emscripten.clang"
  },
  "schemaVersion": "3.4.16",
  "updatedAt": "2024-10-19T17:55:59.835Z",
  "networkType": "ethereum",
  "devdoc": {
    "errors": {
      "ERC721IncorrectOwner(address,uint256,address)": [
        {
          "details": "Indicates an error related to the ownership over a particular token. Used in transfers.",
          "params": {
            "owner": "Address of the current owner of a token.",
            "sender": "Address whose tokens are being transferred.",
            "tokenId": "Identifier number of a token."
          }
        }
      ],
      "ERC721InsufficientApproval(address,uint256)": [
        {
          "details": "Indicates a failure with the `operator`s approval. Used in transfers.",
          "params": {
            "operator": "Address that may be allowed to operate on tokens without being their owner.",
            "tokenId": "Identifier number of a token."
          }
        }
      ],
      "ERC721InvalidApprover(address)": [
        {
          "details": "Indicates a failure with the `approver` of a token to be approved. Used in approvals.",
          "params": {
            "approver": "Address initiating an approval operation."
          }
        }
      ],
      "ERC721InvalidOperator(address)": [
        {
          "details": "Indicates a failure with the `operator` to be approved. Used in approvals.",
          "params": {
            "operator": "Address that may be allowed to operate on tokens without being their owner."
          }
        }
      ],
      "ERC721InvalidOwner(address)": [
        {
          "details": "Indicates that an address can't be an owner. For example, `address(0)` is a forbidden owner in ERC-20. Used in balance queries.",
          "params": {
            "owner": "Address of the current owner of a token."
          }
        }
      ],
      "ERC721InvalidReceiver(address)": [
        {
          "details": "Indicates a failure with the token `receiver`. Used in transfers.",
          "params": {
            "receiver": "Address to which tokens are being transferred."
          }
        }
      ],
      "ERC721InvalidSender(address)": [
        {
          "details": "Indicates a failure with the token `sender`. Used in transfers.",
          "params": {
            "sender": "Address whose tokens are being transferred."
          }
        }
      ],
      "ERC721NonexistentToken(uint256)": [
        {
          "details": "Indicates a `tokenId` whose `owner` is the zero address.",
          "params": {
            "tokenId": "Identifier number of a token."
          }
        }
      ],
      "OwnableInvalidOwner(address)": [
        {
          "details": "The owner is not a valid owner account. (eg. `address(0)`)"
        }
      ],
      "OwnableUnauthorizedAccount(address)": [
        {
          "details": "The caller account is not authorized to perform an operation."
        }
      ]
    },
    "events": {
      "Approval(address,address,uint256)": {
        "details": "Emitted when `owner` enables `approved` to manage the `tokenId` token."
      },
      "ApprovalForAll(address,address,bool)": {
        "details": "Emitted when `owner` enables or disables (`approved`) `operator` to manage all of its assets."
      },
      "BatchMetadataUpdate(uint256,uint256)": {
        "details": "This event emits when the metadata of a range of tokens is changed. So that the third-party platforms such as NFT market could timely update the images and related attributes of the NFTs."
      },
      "MetadataUpdate(uint256)": {
        "details": "This event emits when the metadata of a token is changed. So that the third-party platforms such as NFT market could timely update the images and related attributes of the NFT."
      },
      "Transfer(address,address,uint256)": {
        "details": "Emitted when `tokenId` token is transferred from `from` to `to`."
      }
    },
    "kind": "dev",
    "methods": {
      "approve(address,uint256)": {
        "details": "See {IERC721-approve}."
      },
      "balanceOf(address)": {
        "details": "See {IERC721-balanceOf}."
      },
      "getApproved(uint256)": {
        "details": "See {IERC721-getApproved}."
      },
      "isApprovedForAll(address,address)": {
        "details": "See {IERC721-isApprovedForAll}."
      },
      "name()": {
        "details": "See {IERC721Metadata-name}."
      },
      "owner()": {
        "details": "Returns the address of the current owner."
      },
      "ownerOf(uint256)": {
        "details": "See {IERC721-ownerOf}."
      },
      "renounceOwnership()": {
        "details": "Leaves the contract without owner. It will not be possible to call `onlyOwner` functions. Can only be called by the current owner. NOTE: Renouncing ownership will leave the contract without an owner, thereby disabling any functionality that is only available to the owner."
      },
      "safeTransferFrom(address,address,uint256)": {
        "details": "See {IERC721-safeTransferFrom}."
      },
      "safeTransferFrom(address,address,uint256,bytes)": {
        "details": "See {IERC721-safeTransferFrom}."
      },
      "setApprovalForAll(address,bool)": {
        "details": "See {IERC721-setApprovalForAll}."
      },
      "supportsInterface(bytes4)": {
        "details": "See {IERC165-supportsInterface}"
      },
      "symbol()": {
        "details": "See {IERC721Metadata-symbol}."
      },
      "tokenURI(uint256)": {
        "details": "See {IERC721Metadata-tokenURI}."
      },
      "transferFrom(address,address,uint256)": {
        "details": "See {IERC721-transferFrom}."
      },
      "transferOwnership(address)": {
        "details": "Transfers ownership of the contract to a new account (`newOwner`). Can only be called by the current owner."
      }
    },
    "version": 1
  },
  "userdoc": {
    "kind": "user",
    "methods": {},
    "version": 1
  }
}